{
  "_format": "hh-sol-artifact-1",
  "contractName": "AucEngine",
  "sourceName": "contracts/AucEngine.sol",
  "abi": [
    {
      "inputs": [],
      "stateMutability": "nonpayable",
      "type": "constructor"
    },
    {
      "anonymous": false,
      "inputs": [
        {
          "indexed": false,
          "internalType": "uint256",
          "name": "index",
          "type": "uint256"
        },
        {
          "indexed": false,
          "internalType": "string",
          "name": "itemName",
          "type": "string"
        },
        {
          "indexed": false,
          "internalType": "uint256",
          "name": "startingPrice",
          "type": "uint256"
        },
        {
          "indexed": false,
          "internalType": "uint256",
          "name": "duration",
          "type": "uint256"
        }
      ],
      "name": "AuctionCreated",
      "type": "event"
    },
    {
      "anonymous": false,
      "inputs": [
        {
          "indexed": false,
          "internalType": "uint256",
          "name": "index",
          "type": "uint256"
        },
        {
          "indexed": false,
          "internalType": "uint256",
          "name": "price",
          "type": "uint256"
        },
        {
          "indexed": false,
          "internalType": "address",
          "name": "winner",
          "type": "address"
        }
      ],
      "name": "AuctionEnded",
      "type": "event"
    },
    {
      "inputs": [
        {
          "internalType": "uint256",
          "name": "",
          "type": "uint256"
        }
      ],
      "name": "auctions",
      "outputs": [
        {
          "internalType": "address payable",
          "name": "seller",
          "type": "address"
        },
        {
          "internalType": "uint256",
          "name": "startingPrice",
          "type": "uint256"
        },
        {
          "internalType": "uint256",
          "name": "finalPrice",
          "type": "uint256"
        },
        {
          "internalType": "uint256",
          "name": "startAt",
          "type": "uint256"
        },
        {
          "internalType": "uint256",
          "name": "endsAt",
          "type": "uint256"
        },
        {
          "internalType": "uint256",
          "name": "discountRate",
          "type": "uint256"
        },
        {
          "internalType": "string",
          "name": "item",
          "type": "string"
        },
        {
          "internalType": "bool",
          "name": "stopped",
          "type": "bool"
        }
      ],
      "stateMutability": "view",
      "type": "function"
    },
    {
      "inputs": [
        {
          "internalType": "uint256",
          "name": "index",
          "type": "uint256"
        }
      ],
      "name": "buy",
      "outputs": [],
      "stateMutability": "payable",
      "type": "function"
    },
    {
      "inputs": [
        {
          "internalType": "uint256",
          "name": "_startingPrice",
          "type": "uint256"
        },
        {
          "internalType": "uint256",
          "name": "_discountRate",
          "type": "uint256"
        },
        {
          "internalType": "string",
          "name": "_item",
          "type": "string"
        },
        {
          "internalType": "uint256",
          "name": "_duration",
          "type": "uint256"
        }
      ],
      "name": "createAuction",
      "outputs": [],
      "stateMutability": "nonpayable",
      "type": "function"
    },
    {
      "inputs": [],
      "name": "getAuctions",
      "outputs": [
        {
          "components": [
            {
              "internalType": "address payable",
              "name": "seller",
              "type": "address"
            },
            {
              "internalType": "uint256",
              "name": "startingPrice",
              "type": "uint256"
            },
            {
              "internalType": "uint256",
              "name": "finalPrice",
              "type": "uint256"
            },
            {
              "internalType": "uint256",
              "name": "startAt",
              "type": "uint256"
            },
            {
              "internalType": "uint256",
              "name": "endsAt",
              "type": "uint256"
            },
            {
              "internalType": "uint256",
              "name": "discountRate",
              "type": "uint256"
            },
            {
              "internalType": "string",
              "name": "item",
              "type": "string"
            },
            {
              "internalType": "bool",
              "name": "stopped",
              "type": "bool"
            }
          ],
          "internalType": "struct AucEngine.Auction[]",
          "name": "",
          "type": "tuple[]"
        }
      ],
      "stateMutability": "view",
      "type": "function"
    },
    {
      "inputs": [
        {
          "internalType": "uint256",
          "name": "index",
          "type": "uint256"
        }
      ],
      "name": "getPrice",
      "outputs": [
        {
          "internalType": "uint256",
          "name": "",
          "type": "uint256"
        }
      ],
      "stateMutability": "view",
      "type": "function"
    },
    {
      "inputs": [],
      "name": "owner",
      "outputs": [
        {
          "internalType": "address",
          "name": "",
          "type": "address"
        }
      ],
      "stateMutability": "view",
      "type": "function"
    }
  ],
  "bytecode": "0x608060405234801561001057600080fd5b50336000806101000a81548173ffffffffffffffffffffffffffffffffffffffff021916908373ffffffffffffffffffffffffffffffffffffffff160217905550611792806100606000396000f3fe6080604052600436106100555760003560e01c8063571a26a01461005a5780638da5cb5b1461009e578063d7c06919146100c9578063d96a094a146100f4578063e757223014610110578063e9835d151461014d575b600080fd5b34801561006657600080fd5b50610081600480360381019061007c9190610b0e565b610176565b604051610095989796959493929190610c36565b60405180910390f35b3480156100aa57600080fd5b506100b3610283565b6040516100c09190610cdc565b60405180910390f35b3480156100d557600080fd5b506100de6102a7565b6040516100eb9190610ee0565b60405180910390f35b61010e60048036038101906101099190610b0e565b61043c565b005b34801561011c57600080fd5b5061013760048036038101906101329190610b0e565b6106a0565b6040516101449190610f02565b60405180910390f35b34801561015957600080fd5b50610174600480360381019061016f9190610f82565b61088f565b005b6001818154811061018657600080fd5b90600052602060002090600802016000915090508060000160009054906101000a900473ffffffffffffffffffffffffffffffffffffffff16908060010154908060020154908060030154908060040154908060050154908060060180546101ed90611039565b80601f016020809104026020016040519081016040528092919081815260200182805461021990611039565b80156102665780601f1061023b57610100808354040283529160200191610266565b820191906000526020600020905b81548152906001019060200180831161024957829003601f168201915b5050505050908060070160009054906101000a900460ff16905088565b60008054906101000a900473ffffffffffffffffffffffffffffffffffffffff1681565b60606001805480602002602001604051908101604052809291908181526020016000905b828210156104335783829060005260206000209060080201604051806101000160405290816000820160009054906101000a900473ffffffffffffffffffffffffffffffffffffffff1673ffffffffffffffffffffffffffffffffffffffff1673ffffffffffffffffffffffffffffffffffffffff168152602001600182015481526020016002820154815260200160038201548152602001600482015481526020016005820154815260200160068201805461038790611039565b80601f01602080910402602001604051908101604052809291908181526020018280546103b390611039565b80156104005780601f106103d557610100808354040283529160200191610400565b820191906000526020600020905b8154815290600101906020018083116103e357829003601f168201915b505050505081526020016007820160009054906101000a900460ff161515151581525050815260200190600101906102cb565b50505050905090565b6000600182815481106104525761045161106a565b5b906000526020600020906008020190508060070160009054906101000a900460ff16156104b4576040517f08c379a00000000000000000000000000000000000000000000000000000000081526004016104ab906110e5565b60405180910390fd5b806004015442106104fa576040517f08c379a00000000000000000000000000000000000000000000000000000000081526004016104f190611151565b60405180910390fd5b6000610505836106a0565b90508034101561054a576040517f08c379a0000000000000000000000000000000000000000000000000000000008152600401610541906111bd565b60405180910390fd5b60018260070160006101000a81548160ff0219169083151502179055508082600201819055506000813461057e919061120c565b905060008111156105d1573373ffffffffffffffffffffffffffffffffffffffff166108fc829081150290604051600060405180830381858888f193505050501580156105cf573d6000803e3d6000fd5b505b8260000160009054906101000a900473ffffffffffffffffffffffffffffffffffffffff1673ffffffffffffffffffffffffffffffffffffffff166108fc6064600a8561061e9190611240565b61062891906112b1565b84610633919061120c565b9081150290604051600060405180830381858888f1935050505015801561065e573d6000803e3d6000fd5b507fbafc4bda865d4d1f8d5b16f883e996fde0fe71112fac81503876d35375694400848333604051610692939291906112e2565b60405180910390a150505050565b600080600183815481106106b7576106b661106a565b5b9060005260206000209060080201604051806101000160405290816000820160009054906101000a900473ffffffffffffffffffffffffffffffffffffffff1673ffffffffffffffffffffffffffffffffffffffff1673ffffffffffffffffffffffffffffffffffffffff168152602001600182015481526020016002820154815260200160038201548152602001600482015481526020016005820154815260200160068201805461076990611039565b80601f016020809104026020016040519081016040528092919081815260200182805461079590611039565b80156107e25780601f106107b7576101008083540402835291602001916107e2565b820191906000526020600020905b8154815290600101906020018083116107c557829003601f168201915b505050505081526020016007820160009054906101000a900460ff16151515158152505090508060e001511561084d576040517f08c379a000000000000000000000000000000000000000000000000000000000815260040161084490611365565b60405180910390fd5b600081606001514261085f919061120c565b90506000818360a001516108739190611240565b9050808360200151610885919061120c565b9350505050919050565b600080821461089e57816108a3565b6202a3005b905080856108b19190611240565b8610156108f3576040517f08c379a00000000000000000000000000000000000000000000000000000000081526004016108ea906113d1565b60405180910390fd5b60006040518061010001604052803373ffffffffffffffffffffffffffffffffffffffff168152602001888152602001888152602001428152602001834261093b91906113f1565b815260200187815260200186868080601f016020809104026020016040519081016040528093929190818152602001838380828437600081840152601f19601f820116905080830192505050505050508152602001600015158152509050600181908060018154018082558091505060019003906000526020600020906008020160009091909190915060008201518160000160006101000a81548173ffffffffffffffffffffffffffffffffffffffff021916908373ffffffffffffffffffffffffffffffffffffffff1602179055506020820151816001015560408201518160020155606082015181600301556080820151816004015560a0820151816005015560c0820151816006019081610a539190611600565b5060e08201518160070160006101000a81548160ff02191690831515021790555050507f5bf34ed94988e5dcdc7d1faaa54eb1d3b55f45d5f11457e235afb21a8ebbe73c60018080549050610aa8919061120c565b86868a86604051610abd95949392919061170e565b60405180910390a150505050505050565b600080fd5b600080fd5b6000819050919050565b610aeb81610ad8565b8114610af657600080fd5b50565b600081359050610b0881610ae2565b92915050565b600060208284031215610b2457610b23610ace565b5b6000610b3284828501610af9565b91505092915050565b600073ffffffffffffffffffffffffffffffffffffffff82169050919050565b6000610b6682610b3b565b9050919050565b610b7681610b5b565b82525050565b610b8581610ad8565b82525050565b600081519050919050565b600082825260208201905092915050565b60005b83811015610bc5578082015181840152602081019050610baa565b60008484015250505050565b6000601f19601f8301169050919050565b6000610bed82610b8b565b610bf78185610b96565b9350610c07818560208601610ba7565b610c1081610bd1565b840191505092915050565b60008115159050919050565b610c3081610c1b565b82525050565b600061010082019050610c4c600083018b610b6d565b610c59602083018a610b7c565b610c666040830189610b7c565b610c736060830188610b7c565b610c806080830187610b7c565b610c8d60a0830186610b7c565b81810360c0830152610c9f8185610be2565b9050610cae60e0830184610c27565b9998505050505050505050565b6000610cc682610b3b565b9050919050565b610cd681610cbb565b82525050565b6000602082019050610cf16000830184610ccd565b92915050565b600081519050919050565b600082825260208201905092915050565b6000819050602082019050919050565b610d2c81610b5b565b82525050565b610d3b81610ad8565b82525050565b600082825260208201905092915050565b6000610d5d82610b8b565b610d678185610d41565b9350610d77818560208601610ba7565b610d8081610bd1565b840191505092915050565b610d9481610c1b565b82525050565b600061010083016000830151610db36000860182610d23565b506020830151610dc66020860182610d32565b506040830151610dd96040860182610d32565b506060830151610dec6060860182610d32565b506080830151610dff6080860182610d32565b5060a0830151610e1260a0860182610d32565b5060c083015184820360c0860152610e2a8282610d52565b91505060e0830151610e3f60e0860182610d8b565b508091505092915050565b6000610e568383610d9a565b905092915050565b6000602082019050919050565b6000610e7682610cf7565b610e808185610d02565b935083602082028501610e9285610d13565b8060005b85811015610ece5784840389528151610eaf8582610e4a565b9450610eba83610e5e565b925060208a01995050600181019050610e96565b50829750879550505050505092915050565b60006020820190508181036000830152610efa8184610e6b565b905092915050565b6000602082019050610f176000830184610b7c565b92915050565b600080fd5b600080fd5b600080fd5b60008083601f840112610f4257610f41610f1d565b5b8235905067ffffffffffffffff811115610f5f57610f5e610f22565b5b602083019150836001820283011115610f7b57610f7a610f27565b5b9250929050565b600080600080600060808688031215610f9e57610f9d610ace565b5b6000610fac88828901610af9565b9550506020610fbd88828901610af9565b945050604086013567ffffffffffffffff811115610fde57610fdd610ad3565b5b610fea88828901610f2c565b93509350506060610ffd88828901610af9565b9150509295509295909350565b7f4e487b7100000000000000000000000000000000000000000000000000000000600052602260045260246000fd5b6000600282049050600182168061105157607f821691505b6020821081036110645761106361100a565b5b50919050565b7f4e487b7100000000000000000000000000000000000000000000000000000000600052603260045260246000fd5b7f73746f7070656421000000000000000000000000000000000000000000000000600082015250565b60006110cf600883610b96565b91506110da82611099565b602082019050919050565b600060208201905081810360008301526110fe816110c2565b9050919050565b7f656e646564210000000000000000000000000000000000000000000000000000600082015250565b600061113b600683610b96565b915061114682611105565b602082019050919050565b6000602082019050818103600083015261116a8161112e565b9050919050565b7f6e6f7420656e6f7567682066756e647300000000000000000000000000000000600082015250565b60006111a7601083610b96565b91506111b282611171565b602082019050919050565b600060208201905081810360008301526111d68161119a565b9050919050565b7f4e487b7100000000000000000000000000000000000000000000000000000000600052601160045260246000fd5b600061121782610ad8565b915061122283610ad8565b925082820390508181111561123a576112396111dd565b5b92915050565b600061124b82610ad8565b915061125683610ad8565b925082820261126481610ad8565b9150828204841483151761127b5761127a6111dd565b5b5092915050565b7f4e487b7100000000000000000000000000000000000000000000000000000000600052601260045260246000fd5b60006112bc82610ad8565b91506112c783610ad8565b9250826112d7576112d6611282565b5b828204905092915050565b60006060820190506112f76000830186610b7c565b6113046020830185610b7c565b6113116040830184610ccd565b949350505050565b7f61756320686173206265656e2073746f70706564210000000000000000000000600082015250565b600061134f601583610b96565b915061135a82611319565b602082019050919050565b6000602082019050818103600083015261137e81611342565b9050919050565b7f696e636f72726563742050726963652100000000000000000000000000000000600082015250565b60006113bb601083610b96565b91506113c682611385565b602082019050919050565b600060208201905081810360008301526113ea816113ae565b9050919050565b60006113fc82610ad8565b915061140783610ad8565b925082820190508082111561141f5761141e6111dd565b5b92915050565b7f4e487b7100000000000000000000000000000000000000000000000000000000600052604160045260246000fd5b60008190508160005260206000209050919050565b60006020601f8301049050919050565b600082821b905092915050565b6000600883026114b67fffffffffffffffffffffffffffffffffffffffffffffffffffffffffffffffff82611479565b6114c08683611479565b95508019841693508086168417925050509392505050565b6000819050919050565b60006114fd6114f86114f384610ad8565b6114d8565b610ad8565b9050919050565b6000819050919050565b611517836114e2565b61152b61152382611504565b848454611486565b825550505050565b600090565b611540611533565b61154b81848461150e565b505050565b5b8181101561156f57611564600082611538565b600181019050611551565b5050565b601f8211156115b45761158581611454565b61158e84611469565b8101602085101561159d578190505b6115b16115a985611469565b830182611550565b50505b505050565b600082821c905092915050565b60006115d7600019846008026115b9565b1980831691505092915050565b60006115f083836115c6565b9150826002028217905092915050565b61160982610b8b565b67ffffffffffffffff81111561162257611621611425565b5b61162c8254611039565b611637828285611573565b600060209050601f83116001811461166a5760008415611658578287015190505b61166285826115e4565b8655506116ca565b601f19841661167886611454565b60005b828110156116a05784890151825560018201915060208501945060208101905061167b565b868310156116bd57848901516116b9601f8916826115c6565b8355505b6001600288020188555050505b505050505050565b82818337600083830152505050565b60006116ed8385610b96565b93506116fa8385846116d2565b61170383610bd1565b840190509392505050565b60006080820190506117236000830188610b7c565b81810360208301526117368186886116e1565b90506117456040830185610b7c565b6117526060830184610b7c565b969550505050505056fea264697066735822122068364c51f95317ca487ce984d3969cdf821373706cb8d33d56c5b57c84226d7064736f6c63430008110033",
  "linkReferences": {},
  "deployedLinkReferences": {}
}